{
  "_format": "hh-sol-artifact-1",
  "contractName": "WavePortal",
  "sourceName": "contracts/WavePortal.sol",
  "abi": [
    {
      "inputs": [],
      "stateMutability": "payable",
      "type": "constructor"
    },
    {
      "anonymous": false,
      "inputs": [
        {
          "indexed": true,
          "internalType": "address",
          "name": "from",
          "type": "address"
        },
        {
          "indexed": false,
          "internalType": "uint256",
          "name": "timestamp",
          "type": "uint256"
        },
        {
          "indexed": false,
          "internalType": "string",
          "name": "message",
          "type": "string"
        }
      ],
      "name": "NewWave",
      "type": "event"
    },
    {
      "inputs": [
        {
          "internalType": "address",
          "name": "",
          "type": "address"
        }
      ],
      "name": "addressWaveCount",
      "outputs": [
        {
          "internalType": "uint256",
          "name": "",
          "type": "uint256"
        }
      ],
      "stateMutability": "view",
      "type": "function"
    },
    {
      "inputs": [],
      "name": "getAllWaves",
      "outputs": [
        {
          "components": [
            {
              "internalType": "address",
              "name": "waver",
              "type": "address"
            },
            {
              "internalType": "string",
              "name": "message",
              "type": "string"
            },
            {
              "internalType": "uint256",
              "name": "timestamp",
              "type": "uint256"
            }
          ],
          "internalType": "struct WavePortal.Wave[]",
          "name": "",
          "type": "tuple[]"
        }
      ],
      "stateMutability": "view",
      "type": "function"
    },
    {
      "inputs": [],
      "name": "getTotalWaves",
      "outputs": [
        {
          "internalType": "uint256",
          "name": "",
          "type": "uint256"
        }
      ],
      "stateMutability": "view",
      "type": "function"
    },
    {
      "inputs": [],
      "name": "getTotalWavesOfSender",
      "outputs": [
        {
          "internalType": "uint256",
          "name": "",
          "type": "uint256"
        }
      ],
      "stateMutability": "view",
      "type": "function"
    },
    {
      "inputs": [
        {
          "internalType": "address",
          "name": "",
          "type": "address"
        }
      ],
      "name": "lastWavedAt",
      "outputs": [
        {
          "internalType": "uint256",
          "name": "",
          "type": "uint256"
        }
      ],
      "stateMutability": "view",
      "type": "function"
    },
    {
      "inputs": [
        {
          "internalType": "string",
          "name": "_message",
          "type": "string"
        }
      ],
      "name": "wave",
      "outputs": [],
      "stateMutability": "nonpayable",
      "type": "function"
    }
  ],
  "bytecode": "0x60806040526200004f6040518060400160405280601981526020017f57652068617665206265656e20636f6e737472756374656421000000000000008152506200007760201b6200077f1760201c565b606444426200005f9190620001c4565b6200006b919062000261565b60018190555062000308565b62000117816040516024016200008e919062000184565b6040516020818303038152906040527f41304fac000000000000000000000000000000000000000000000000000000007bffffffffffffffffffffffffffffffffffffffffffffffffffffffff19166020820180517bffffffffffffffffffffffffffffffffffffffffffffffffffffffff83818316178352505050506200011a60201b60201c565b50565b60008151905060006a636f6e736f6c652e6c6f679050602083016000808483855afa5050505050565b60006200015082620001a8565b6200015c8185620001b3565b93506200016e8185602086016200022b565b6200017981620002f7565b840191505092915050565b60006020820190508181036000830152620001a0818462000143565b905092915050565b600081519050919050565b600082825260208201905092915050565b6000620001d18262000221565b9150620001de8362000221565b9250827fffffffffffffffffffffffffffffffffffffffffffffffffffffffffffffffff0382111562000216576200021562000299565b5b828201905092915050565b6000819050919050565b60005b838110156200024b5780820151818401526020810190506200022e565b838111156200025b576000848401525b50505050565b60006200026e8262000221565b91506200027b8362000221565b9250826200028e576200028d620002c8565b5b828206905092915050565b7f4e487b7100000000000000000000000000000000000000000000000000000000600052601160045260246000fd5b7f4e487b7100000000000000000000000000000000000000000000000000000000600052601260045260246000fd5b6000601f19601f8301169050919050565b6112be80620003186000396000f3fe608060405234801561001057600080fd5b50600436106100625760003560e01c8063449d46c0146100675780639a2cdc0814610083578063a42a4663146100a1578063bd43a908146100d1578063dff0241c146100ef578063ec3997e41461011f575b600080fd5b610081600480360381019061007c9190610ac5565b61013d565b005b61008b61054c565b6040516100989190610eda565b60405180910390f35b6100bb60048036038101906100b69190610a9c565b610555565b6040516100c89190610eda565b60405180910390f35b6100d961056d565b6040516100e69190610dc8565b60405180910390f35b61010960048036038101906101049190610a9c565b6106be565b6040516101169190610eda565b60405180910390f35b6101276106d6565b6040516101349190610eda565b60405180910390f35b42610384600360003373ffffffffffffffffffffffffffffffffffffffff1673ffffffffffffffffffffffffffffffffffffffff1681526020019081526020016000205461018b9190610ff7565b106101cb576040517f08c379a00000000000000000000000000000000000000000000000000000000081526004016101c290610eba565b60405180910390fd5b42600360003373ffffffffffffffffffffffffffffffffffffffff1673ffffffffffffffffffffffffffffffffffffffff1681526020019081526020016000208190555060016000808282546102219190610ff7565b92505081905550600260003373ffffffffffffffffffffffffffffffffffffffff1673ffffffffffffffffffffffffffffffffffffffff1681526020019081526020016000206000815480929190610278906110fd565b91905055506102bc6040518060400160405280600d81526020017f257320686173207761766564210000000000000000000000000000000000000081525033610818565b600460405180606001604052803373ffffffffffffffffffffffffffffffffffffffff16815260200183815260200142815250908060018154018082558091505060019003906000526020600020906003020160009091909190915060008201518160000160006101000a81548173ffffffffffffffffffffffffffffffffffffffff021916908373ffffffffffffffffffffffffffffffffffffffff160217905550602082015181600101908051906020019061037b92919061097c565b50604082015181600201555050606460015442446103999190610ff7565b6103a39190610ff7565b6103ad9190611146565b6001819055506032600154116104f9576103fc6040518060400160405280600781526020017f257320776f6e210000000000000000000000000000000000000000000000000081525033610818565b6000655af3107a400090504781111561044a576040517f08c379a000000000000000000000000000000000000000000000000000000000815260040161044190610e7a565b60405180910390fd5b60003373ffffffffffffffffffffffffffffffffffffffff168260405161047090610db3565b60006040518083038185875af1925050503d80600081146104ad576040519150601f19603f3d011682016040523d82523d6000602084013e6104b2565b606091505b50509050806104f6576040517f08c379a00000000000000000000000000000000000000000000000000000000081526004016104ed90610e9a565b60405180910390fd5b50505b3373ffffffffffffffffffffffffffffffffffffffff167f5f7e16dc676677766a70e9c5628aa6c54ddb8b6e5188e2ae1e1f17f1ffbea7164283604051610541929190610ef5565b60405180910390a250565b60008054905090565b60036020528060005260406000206000915090505481565b60606004805480602002602001604051908101604052809291908181526020016000905b828210156106b557838290600052602060002090600302016040518060600160405290816000820160009054906101000a900473ffffffffffffffffffffffffffffffffffffffff1673ffffffffffffffffffffffffffffffffffffffff1673ffffffffffffffffffffffffffffffffffffffff16815260200160018201805461061a906110cb565b80601f0160208091040260200160405190810160405280929190818152602001828054610646906110cb565b80156106935780601f1061066857610100808354040283529160200191610693565b820191906000526020600020905b81548152906001019060200180831161067657829003601f168201915b5050505050815260200160028201548152505081526020019060010190610591565b50505050905090565b60026020528060005260406000206000915090505481565b600061073a6040518060600160405280602d815260200161125c602d9139600260003373ffffffffffffffffffffffffffffffffffffffff1673ffffffffffffffffffffffffffffffffffffffff16815260200190815260200160002054336108b4565b600260003373ffffffffffffffffffffffffffffffffffffffff1673ffffffffffffffffffffffffffffffffffffffff16815260200190815260200160002054905090565b610815816040516024016107939190610dea565b6040516020818303038152906040527f41304fac000000000000000000000000000000000000000000000000000000007bffffffffffffffffffffffffffffffffffffffffffffffffffffffff19166020820180517bffffffffffffffffffffffffffffffffffffffffffffffffffffffff8381831617835250505050610953565b50565b6108b0828260405160240161082e929190610e0c565b6040516020818303038152906040527f319af333000000000000000000000000000000000000000000000000000000007bffffffffffffffffffffffffffffffffffffffffffffffffffffffff19166020820180517bffffffffffffffffffffffffffffffffffffffffffffffffffffffff8381831617835250505050610953565b5050565b61094e8383836040516024016108cc93929190610e3c565b6040516020818303038152906040527fe3849f79000000000000000000000000000000000000000000000000000000007bffffffffffffffffffffffffffffffffffffffffffffffffffffffff19166020820180517bffffffffffffffffffffffffffffffffffffffffffffffffffffffff8381831617835250505050610953565b505050565b60008151905060006a636f6e736f6c652e6c6f679050602083016000808483855afa5050505050565b828054610988906110cb565b90600052602060002090601f0160209004810192826109aa57600085556109f1565b82601f106109c357805160ff19168380011785556109f1565b828001600101855582156109f1579182015b828111156109f05782518255916020019190600101906109d5565b5b5090506109fe9190610a02565b5090565b5b80821115610a1b576000816000905550600101610a03565b5090565b6000610a32610a2d84610f56565b610f25565b905082815260208101848484011115610a4a57600080fd5b610a55848285611089565b509392505050565b600081359050610a6c81611244565b92915050565b600082601f830112610a8357600080fd5b8135610a93848260208601610a1f565b91505092915050565b600060208284031215610aae57600080fd5b6000610abc84828501610a5d565b91505092915050565b600060208284031215610ad757600080fd5b600082013567ffffffffffffffff811115610af157600080fd5b610afd84828501610a72565b91505092915050565b6000610b128383610d45565b905092915050565b610b238161104d565b82525050565b610b328161104d565b82525050565b6000610b4382610f96565b610b4d8185610fb9565b935083602082028501610b5f85610f86565b8060005b85811015610b9b5784840389528151610b7c8582610b06565b9450610b8783610fac565b925060208a01995050600181019050610b63565b50829750879550505050505092915050565b6000610bb882610fa1565b610bc28185610fd5565b9350610bd2818560208601611098565b610bdb81611233565b840191505092915050565b6000610bf182610fa1565b610bfb8185610fe6565b9350610c0b818560208601611098565b610c1481611233565b840191505092915050565b6000610c2c603483610fe6565b91507f547279696e6720746f207769746864726177206d6f7265206d6f6e657920746860008301527f616e2074686520636f6e7472616374206861732e0000000000000000000000006020830152604082019050919050565b6000610c92602783610fe6565b91507f4661696c656420746f207769746864726177206d6f6e65792066726f6d20636f60008301527f6e74726163742e000000000000000000000000000000000000000000000000006020830152604082019050919050565b6000610cf8600083610fca565b9150600082019050919050565b6000610d12600883610fe6565b91507f576169742031356d0000000000000000000000000000000000000000000000006000830152602082019050919050565b6000606083016000830151610d5d6000860182610b1a565b5060208301518482036020860152610d758282610bad565b9150506040830151610d8a6040860182610d95565b508091505092915050565b610d9e8161107f565b82525050565b610dad8161107f565b82525050565b6000610dbe82610ceb565b9150819050919050565b60006020820190508181036000830152610de28184610b38565b905092915050565b60006020820190508181036000830152610e048184610be6565b905092915050565b60006040820190508181036000830152610e268185610be6565b9050610e356020830184610b29565b9392505050565b60006060820190508181036000830152610e568186610be6565b9050610e656020830185610da4565b610e726040830184610b29565b949350505050565b60006020820190508181036000830152610e9381610c1f565b9050919050565b60006020820190508181036000830152610eb381610c85565b9050919050565b60006020820190508181036000830152610ed381610d05565b9050919050565b6000602082019050610eef6000830184610da4565b92915050565b6000604082019050610f0a6000830185610da4565b8181036020830152610f1c8184610be6565b90509392505050565b6000604051905081810181811067ffffffffffffffff82111715610f4c57610f4b611204565b5b8060405250919050565b600067ffffffffffffffff821115610f7157610f70611204565b5b601f19601f8301169050602081019050919050565b6000819050602082019050919050565b600081519050919050565b600081519050919050565b6000602082019050919050565b600082825260208201905092915050565b600081905092915050565b600082825260208201905092915050565b600082825260208201905092915050565b60006110028261107f565b915061100d8361107f565b9250827fffffffffffffffffffffffffffffffffffffffffffffffffffffffffffffffff0382111561104257611041611177565b5b828201905092915050565b60006110588261105f565b9050919050565b600073ffffffffffffffffffffffffffffffffffffffff82169050919050565b6000819050919050565b82818337600083830152505050565b60005b838110156110b657808201518184015260208101905061109b565b838111156110c5576000848401525b50505050565b600060028204905060018216806110e357607f821691505b602082108114156110f7576110f66111d5565b5b50919050565b60006111088261107f565b91507fffffffffffffffffffffffffffffffffffffffffffffffffffffffffffffffff82141561113b5761113a611177565b5b600182019050919050565b60006111518261107f565b915061115c8361107f565b92508261116c5761116b6111a6565b5b828206905092915050565b7f4e487b7100000000000000000000000000000000000000000000000000000000600052601160045260246000fd5b7f4e487b7100000000000000000000000000000000000000000000000000000000600052601260045260246000fd5b7f4e487b7100000000000000000000000000000000000000000000000000000000600052602260045260246000fd5b7f4e487b7100000000000000000000000000000000000000000000000000000000600052604160045260246000fd5b6000601f19601f8301169050919050565b61124d8161104d565b811461125857600080fd5b5056fe57652068617665206120746f74616c206f662025642077617665732066726f6d20616464726573732025732021a2646970667358221220f10cda2c32db74b3064b49c34001f42db3cd318c104953a4206c1e21da90b16164736f6c63430008000033",
  "linkReferences": {},
  "deployedLinkReferences": {}
}