{
  "_format": "hh-sol-artifact-1",
  "contractName": "WavePortal",
  "sourceName": "contracts/WavePortal.sol",
  "abi": [
    {
      "inputs": [],
      "stateMutability": "nonpayable",
      "type": "constructor"
    },
    {
      "anonymous": false,
      "inputs": [
        {
          "indexed": true,
          "internalType": "address",
          "name": "from",
          "type": "address"
        },
        {
          "indexed": false,
          "internalType": "uint256",
          "name": "timestamp",
          "type": "uint256"
        },
        {
          "indexed": false,
          "internalType": "string",
          "name": "message",
          "type": "string"
        }
      ],
      "name": "NewWave",
      "type": "event"
    },
    {
      "inputs": [
        {
          "internalType": "address",
          "name": "",
          "type": "address"
        }
      ],
      "name": "addressWaveCount",
      "outputs": [
        {
          "internalType": "uint256",
          "name": "",
          "type": "uint256"
        }
      ],
      "stateMutability": "view",
      "type": "function"
    },
    {
      "inputs": [],
      "name": "getAllWaves",
      "outputs": [
        {
          "components": [
            {
              "internalType": "address",
              "name": "waver",
              "type": "address"
            },
            {
              "internalType": "string",
              "name": "message",
              "type": "string"
            },
            {
              "internalType": "uint256",
              "name": "timestamp",
              "type": "uint256"
            }
          ],
          "internalType": "struct WavePortal.Wave[]",
          "name": "",
          "type": "tuple[]"
        }
      ],
      "stateMutability": "view",
      "type": "function"
    },
    {
      "inputs": [],
      "name": "getTotalWaves",
      "outputs": [
        {
          "internalType": "uint256",
          "name": "",
          "type": "uint256"
        }
      ],
      "stateMutability": "view",
      "type": "function"
    },
    {
      "inputs": [],
      "name": "getTotalWavesOfSender",
      "outputs": [
        {
          "internalType": "uint256",
          "name": "",
          "type": "uint256"
        }
      ],
      "stateMutability": "view",
      "type": "function"
    },
    {
      "inputs": [
        {
          "internalType": "string",
          "name": "_message",
          "type": "string"
        }
      ],
      "name": "wave",
      "outputs": [],
      "stateMutability": "nonpayable",
      "type": "function"
    }
  ],
  "bytecode": "0x60806040523480156200001157600080fd5b506200005d6040518060400160405280601981526020017f4920414d20534d41525420434f4e54524143542e20504f472e000000000000008152506200006360201b6200052b1760201c565b620001f7565b62000103816040516024016200007a919062000170565b6040516020818303038152906040527f41304fac000000000000000000000000000000000000000000000000000000007bffffffffffffffffffffffffffffffffffffffffffffffffffffffff19166020820180517bffffffffffffffffffffffffffffffffffffffffffffffffffffffff83818316178352505050506200010660201b60201c565b50565b60008151905060006a636f6e736f6c652e6c6f679050602083016000808483855afa5050505050565b60006200013c8262000194565b6200014881856200019f565b93506200015a818560208601620001b0565b6200016581620001e6565b840191505092915050565b600060208201905081810360008301526200018c81846200012f565b905092915050565b600081519050919050565b600082825260208201905092915050565b60005b83811015620001d0578082015181840152602081019050620001b3565b83811115620001e0576000848401525b50505050565b6000601f19601f8301169050919050565b610f3080620002076000396000f3fe608060405234801561001057600080fd5b50600436106100575760003560e01c8063449d46c01461005c5780639a2cdc0814610078578063bd43a90814610096578063dff0241c146100b4578063ec3997e4146100e4575b600080fd5b6100766004803603810190610071919061090d565b610102565b005b6100806102ce565b60405161008d9190610bb7565b60405180910390f35b61009e610319565b6040516100ab9190610ad5565b60405180910390f35b6100ce60048036038101906100c991906108e4565b61046a565b6040516100db9190610bb7565b60405180910390f35b6100ec610482565b6040516100f99190610bb7565b60405180910390f35b60016000808282546101149190610cc9565b92505081905550600160003373ffffffffffffffffffffffffffffffffffffffff1673ffffffffffffffffffffffffffffffffffffffff168152602001908152602001600020600081548092919061016b90610dcf565b91905055506101af6040518060400160405280600d81526020017f2573206861732077617665642100000000000000000000000000000000000000815250336105c4565b600260405180606001604052803373ffffffffffffffffffffffffffffffffffffffff16815260200183815260200142815250908060018154018082558091505060019003906000526020600020906003020160009091909190915060008201518160000160006101000a81548173ffffffffffffffffffffffffffffffffffffffff021916908373ffffffffffffffffffffffffffffffffffffffff160217905550602082015181600101908051906020019061026e9291906107c4565b506040820151816002015550503373ffffffffffffffffffffffffffffffffffffffff167f5f7e16dc676677766a70e9c5628aa6c54ddb8b6e5188e2ae1e1f17f1ffbea71642836040516102c3929190610bd2565b60405180910390a250565b60006103116040518060400160405280601781526020017f5765206861766520256420746f74616c20776176657321000000000000000000815250600054610660565b600054905090565b60606002805480602002602001604051908101604052809291908181526020016000905b8282101561046157838290600052602060002090600302016040518060600160405290816000820160009054906101000a900473ffffffffffffffffffffffffffffffffffffffff1673ffffffffffffffffffffffffffffffffffffffff1673ffffffffffffffffffffffffffffffffffffffff1681526020016001820180546103c690610d9d565b80601f01602080910402602001604051908101604052809291908181526020018280546103f290610d9d565b801561043f5780601f106104145761010080835404028352916020019161043f565b820191906000526020600020905b81548152906001019060200180831161042257829003601f168201915b505050505081526020016002820154815250508152602001906001019061033d565b50505050905090565b60016020528060005260406000206000915090505481565b60006104e66040518060600160405280602d8152602001610ece602d9139600160003373ffffffffffffffffffffffffffffffffffffffff1673ffffffffffffffffffffffffffffffffffffffff16815260200190815260200160002054336106fc565b600160003373ffffffffffffffffffffffffffffffffffffffff1673ffffffffffffffffffffffffffffffffffffffff16815260200190815260200160002054905090565b6105c18160405160240161053f9190610af7565b6040516020818303038152906040527f41304fac000000000000000000000000000000000000000000000000000000007bffffffffffffffffffffffffffffffffffffffffffffffffffffffff19166020820180517bffffffffffffffffffffffffffffffffffffffffffffffffffffffff838183161783525050505061079b565b50565b61065c82826040516024016105da929190610b19565b6040516020818303038152906040527f319af333000000000000000000000000000000000000000000000000000000007bffffffffffffffffffffffffffffffffffffffffffffffffffffffff19166020820180517bffffffffffffffffffffffffffffffffffffffffffffffffffffffff838183161783525050505061079b565b5050565b6106f88282604051602401610676929190610b49565b6040516020818303038152906040527f9710a9d0000000000000000000000000000000000000000000000000000000007bffffffffffffffffffffffffffffffffffffffffffffffffffffffff19166020820180517bffffffffffffffffffffffffffffffffffffffffffffffffffffffff838183161783525050505061079b565b5050565b61079683838360405160240161071493929190610b79565b6040516020818303038152906040527fe3849f79000000000000000000000000000000000000000000000000000000007bffffffffffffffffffffffffffffffffffffffffffffffffffffffff19166020820180517bffffffffffffffffffffffffffffffffffffffffffffffffffffffff838183161783525050505061079b565b505050565b60008151905060006a636f6e736f6c652e6c6f679050602083016000808483855afa5050505050565b8280546107d090610d9d565b90600052602060002090601f0160209004810192826107f25760008555610839565b82601f1061080b57805160ff1916838001178555610839565b82800160010185558215610839579182015b8281111561083857825182559160200191906001019061081d565b5b509050610846919061084a565b5090565b5b8082111561086357600081600090555060010161084b565b5090565b600061087a61087584610c33565b610c02565b90508281526020810184848401111561089257600080fd5b61089d848285610d5b565b509392505050565b6000813590506108b481610eb6565b92915050565b600082601f8301126108cb57600080fd5b81356108db848260208601610867565b91505092915050565b6000602082840312156108f657600080fd5b6000610904848285016108a5565b91505092915050565b60006020828403121561091f57600080fd5b600082013567ffffffffffffffff81111561093957600080fd5b610945848285016108ba565b91505092915050565b600061095a8383610a67565b905092915050565b61096b81610d1f565b82525050565b61097a81610d1f565b82525050565b600061098b82610c73565b6109958185610c96565b9350836020820285016109a785610c63565b8060005b858110156109e357848403895281516109c4858261094e565b94506109cf83610c89565b925060208a019950506001810190506109ab565b50829750879550505050505092915050565b6000610a0082610c7e565b610a0a8185610ca7565b9350610a1a818560208601610d6a565b610a2381610ea5565b840191505092915050565b6000610a3982610c7e565b610a438185610cb8565b9350610a53818560208601610d6a565b610a5c81610ea5565b840191505092915050565b6000606083016000830151610a7f6000860182610962565b5060208301518482036020860152610a9782826109f5565b9150506040830151610aac6040860182610ab7565b508091505092915050565b610ac081610d51565b82525050565b610acf81610d51565b82525050565b60006020820190508181036000830152610aef8184610980565b905092915050565b60006020820190508181036000830152610b118184610a2e565b905092915050565b60006040820190508181036000830152610b338185610a2e565b9050610b426020830184610971565b9392505050565b60006040820190508181036000830152610b638185610a2e565b9050610b726020830184610ac6565b9392505050565b60006060820190508181036000830152610b938186610a2e565b9050610ba26020830185610ac6565b610baf6040830184610971565b949350505050565b6000602082019050610bcc6000830184610ac6565b92915050565b6000604082019050610be76000830185610ac6565b8181036020830152610bf98184610a2e565b90509392505050565b6000604051905081810181811067ffffffffffffffff82111715610c2957610c28610e76565b5b8060405250919050565b600067ffffffffffffffff821115610c4e57610c4d610e76565b5b601f19601f8301169050602081019050919050565b6000819050602082019050919050565b600081519050919050565b600081519050919050565b6000602082019050919050565b600082825260208201905092915050565b600082825260208201905092915050565b600082825260208201905092915050565b6000610cd482610d51565b9150610cdf83610d51565b9250827fffffffffffffffffffffffffffffffffffffffffffffffffffffffffffffffff03821115610d1457610d13610e18565b5b828201905092915050565b6000610d2a82610d31565b9050919050565b600073ffffffffffffffffffffffffffffffffffffffff82169050919050565b6000819050919050565b82818337600083830152505050565b60005b83811015610d88578082015181840152602081019050610d6d565b83811115610d97576000848401525b50505050565b60006002820490506001821680610db557607f821691505b60208210811415610dc957610dc8610e47565b5b50919050565b6000610dda82610d51565b91507fffffffffffffffffffffffffffffffffffffffffffffffffffffffffffffffff821415610e0d57610e0c610e18565b5b600182019050919050565b7f4e487b7100000000000000000000000000000000000000000000000000000000600052601160045260246000fd5b7f4e487b7100000000000000000000000000000000000000000000000000000000600052602260045260246000fd5b7f4e487b7100000000000000000000000000000000000000000000000000000000600052604160045260246000fd5b6000601f19601f8301169050919050565b610ebf81610d1f565b8114610eca57600080fd5b5056fe57652068617665206120746f74616c206f662025642077617665732066726f6d20616464726573732025732021a264697066735822122053b226b09b1080638a2229f5691f6ca618fd11eb94178bd66fe656bd6f3daec064736f6c63430008000033",
  "linkReferences": {},
  "deployedLinkReferences": {}
}