{
  "_format": "hh-sol-artifact-1",
  "contractName": "WavePortal",
  "sourceName": "contracts/WavePortal.sol",
  "abi": [
    {
      "inputs": [],
      "stateMutability": "payable",
      "type": "constructor"
    },
    {
      "anonymous": false,
      "inputs": [
        {
          "indexed": true,
          "internalType": "address",
          "name": "from",
          "type": "address"
        },
        {
          "indexed": false,
          "internalType": "uint256",
          "name": "timestamp",
          "type": "uint256"
        },
        {
          "indexed": false,
          "internalType": "string",
          "name": "message",
          "type": "string"
        }
      ],
      "name": "NewWave",
      "type": "event"
    },
    {
      "inputs": [
        {
          "internalType": "address",
          "name": "",
          "type": "address"
        }
      ],
      "name": "addressWaveCount",
      "outputs": [
        {
          "internalType": "uint256",
          "name": "",
          "type": "uint256"
        }
      ],
      "stateMutability": "view",
      "type": "function"
    },
    {
      "inputs": [],
      "name": "getAllWaves",
      "outputs": [
        {
          "components": [
            {
              "internalType": "address",
              "name": "waver",
              "type": "address"
            },
            {
              "internalType": "string",
              "name": "message",
              "type": "string"
            },
            {
              "internalType": "uint256",
              "name": "timestamp",
              "type": "uint256"
            }
          ],
          "internalType": "struct WavePortal.Wave[]",
          "name": "",
          "type": "tuple[]"
        }
      ],
      "stateMutability": "view",
      "type": "function"
    },
    {
      "inputs": [],
      "name": "getTotalWaves",
      "outputs": [
        {
          "internalType": "uint256",
          "name": "",
          "type": "uint256"
        }
      ],
      "stateMutability": "view",
      "type": "function"
    },
    {
      "inputs": [],
      "name": "getTotalWavesOfSender",
      "outputs": [
        {
          "internalType": "uint256",
          "name": "",
          "type": "uint256"
        }
      ],
      "stateMutability": "view",
      "type": "function"
    },
    {
      "inputs": [
        {
          "internalType": "string",
          "name": "_message",
          "type": "string"
        }
      ],
      "name": "wave",
      "outputs": [],
      "stateMutability": "nonpayable",
      "type": "function"
    }
  ],
  "bytecode": "0x60806040526200004f6040518060400160405280601981526020017f4920414d20534d41525420434f4e54524143542e20504f472e000000000000008152506200005560201b620006271760201c565b620001e9565b620000f5816040516024016200006c919062000162565b6040516020818303038152906040527f41304fac000000000000000000000000000000000000000000000000000000007bffffffffffffffffffffffffffffffffffffffffffffffffffffffff19166020820180517bffffffffffffffffffffffffffffffffffffffffffffffffffffffff8381831617835250505050620000f860201b60201c565b50565b60008151905060006a636f6e736f6c652e6c6f679050602083016000808483855afa5050505050565b60006200012e8262000186565b6200013a818562000191565b93506200014c818560208601620001a2565b6200015781620001d8565b840191505092915050565b600060208201905081810360008301526200017e818462000121565b905092915050565b600081519050919050565b600082825260208201905092915050565b60005b83811015620001c2578082015181840152602081019050620001a5565b83811115620001d2576000848401525b50505050565b6000601f19601f8301169050919050565b61117280620001f96000396000f3fe608060405234801561001057600080fd5b50600436106100575760003560e01c8063449d46c01461005c5780639a2cdc0814610078578063bd43a90814610096578063dff0241c146100b4578063ec3997e4146100e4575b600080fd5b61007660048036038101906100719190610a09565b610102565b005b6100806103ca565b60405161008d9190610dee565b60405180910390f35b61009e610415565b6040516100ab9190610ccc565b60405180910390f35b6100ce60048036038101906100c991906109e0565b610566565b6040516100db9190610dee565b60405180910390f35b6100ec61057e565b6040516100f99190610dee565b60405180910390f35b60016000808282546101149190610f0b565b92505081905550600160003373ffffffffffffffffffffffffffffffffffffffff1673ffffffffffffffffffffffffffffffffffffffff168152602001908152602001600020600081548092919061016b90611011565b91905055506101af6040518060400160405280600d81526020017f2573206861732077617665642100000000000000000000000000000000000000815250336106c0565b600260405180606001604052803373ffffffffffffffffffffffffffffffffffffffff16815260200183815260200142815250908060018154018082558091505060019003906000526020600020906003020160009091909190915060008201518160000160006101000a81548173ffffffffffffffffffffffffffffffffffffffff021916908373ffffffffffffffffffffffffffffffffffffffff160217905550602082015181600101908051906020019061026e9291906108c0565b506040820151816002015550503373ffffffffffffffffffffffffffffffffffffffff167f5f7e16dc676677766a70e9c5628aa6c54ddb8b6e5188e2ae1e1f17f1ffbea71642836040516102c3929190610e09565b60405180910390a26000655af3107a4000905047811115610319576040517f08c379a000000000000000000000000000000000000000000000000000000000815260040161031090610dae565b60405180910390fd5b60003373ffffffffffffffffffffffffffffffffffffffff168260405161033f90610cb7565b60006040518083038185875af1925050503d806000811461037c576040519150601f19603f3d011682016040523d82523d6000602084013e610381565b606091505b50509050806103c5576040517f08c379a00000000000000000000000000000000000000000000000000000000081526004016103bc90610dce565b60405180910390fd5b505050565b600061040d6040518060400160405280601781526020017f5765206861766520256420746f74616c2077617665732100000000000000000081525060005461075c565b600054905090565b60606002805480602002602001604051908101604052809291908181526020016000905b8282101561055d57838290600052602060002090600302016040518060600160405290816000820160009054906101000a900473ffffffffffffffffffffffffffffffffffffffff1673ffffffffffffffffffffffffffffffffffffffff1673ffffffffffffffffffffffffffffffffffffffff1681526020016001820180546104c290610fdf565b80601f01602080910402602001604051908101604052809291908181526020018280546104ee90610fdf565b801561053b5780601f106105105761010080835404028352916020019161053b565b820191906000526020600020905b81548152906001019060200180831161051e57829003601f168201915b5050505050815260200160028201548152505081526020019060010190610439565b50505050905090565b60016020528060005260406000206000915090505481565b60006105e26040518060600160405280602d8152602001611110602d9139600160003373ffffffffffffffffffffffffffffffffffffffff1673ffffffffffffffffffffffffffffffffffffffff16815260200190815260200160002054336107f8565b600160003373ffffffffffffffffffffffffffffffffffffffff1673ffffffffffffffffffffffffffffffffffffffff16815260200190815260200160002054905090565b6106bd8160405160240161063b9190610cee565b6040516020818303038152906040527f41304fac000000000000000000000000000000000000000000000000000000007bffffffffffffffffffffffffffffffffffffffffffffffffffffffff19166020820180517bffffffffffffffffffffffffffffffffffffffffffffffffffffffff8381831617835250505050610897565b50565b61075882826040516024016106d6929190610d10565b6040516020818303038152906040527f319af333000000000000000000000000000000000000000000000000000000007bffffffffffffffffffffffffffffffffffffffffffffffffffffffff19166020820180517bffffffffffffffffffffffffffffffffffffffffffffffffffffffff8381831617835250505050610897565b5050565b6107f48282604051602401610772929190610d40565b6040516020818303038152906040527f9710a9d0000000000000000000000000000000000000000000000000000000007bffffffffffffffffffffffffffffffffffffffffffffffffffffffff19166020820180517bffffffffffffffffffffffffffffffffffffffffffffffffffffffff8381831617835250505050610897565b5050565b61089283838360405160240161081093929190610d70565b6040516020818303038152906040527fe3849f79000000000000000000000000000000000000000000000000000000007bffffffffffffffffffffffffffffffffffffffffffffffffffffffff19166020820180517bffffffffffffffffffffffffffffffffffffffffffffffffffffffff8381831617835250505050610897565b505050565b60008151905060006a636f6e736f6c652e6c6f679050602083016000808483855afa5050505050565b8280546108cc90610fdf565b90600052602060002090601f0160209004810192826108ee5760008555610935565b82601f1061090757805160ff1916838001178555610935565b82800160010185558215610935579182015b82811115610934578251825591602001919060010190610919565b5b5090506109429190610946565b5090565b5b8082111561095f576000816000905550600101610947565b5090565b600061097661097184610e6a565b610e39565b90508281526020810184848401111561098e57600080fd5b610999848285610f9d565b509392505050565b6000813590506109b0816110f8565b92915050565b600082601f8301126109c757600080fd5b81356109d7848260208601610963565b91505092915050565b6000602082840312156109f257600080fd5b6000610a00848285016109a1565b91505092915050565b600060208284031215610a1b57600080fd5b600082013567ffffffffffffffff811115610a3557600080fd5b610a41848285016109b6565b91505092915050565b6000610a568383610c49565b905092915050565b610a6781610f61565b82525050565b610a7681610f61565b82525050565b6000610a8782610eaa565b610a918185610ecd565b935083602082028501610aa385610e9a565b8060005b85811015610adf5784840389528151610ac08582610a4a565b9450610acb83610ec0565b925060208a01995050600181019050610aa7565b50829750879550505050505092915050565b6000610afc82610eb5565b610b068185610ee9565b9350610b16818560208601610fac565b610b1f816110e7565b840191505092915050565b6000610b3582610eb5565b610b3f8185610efa565b9350610b4f818560208601610fac565b610b58816110e7565b840191505092915050565b6000610b70603483610efa565b91507f547279696e6720746f207769746864726177206d6f7265206d6f6e657920746860008301527f616e2074686520636f6e7472616374206861732e0000000000000000000000006020830152604082019050919050565b6000610bd6602783610efa565b91507f4661696c656420746f207769746864726177206d6f6e65792066726f6d20636f60008301527f6e74726163742e000000000000000000000000000000000000000000000000006020830152604082019050919050565b6000610c3c600083610ede565b9150600082019050919050565b6000606083016000830151610c616000860182610a5e565b5060208301518482036020860152610c798282610af1565b9150506040830151610c8e6040860182610c99565b508091505092915050565b610ca281610f93565b82525050565b610cb181610f93565b82525050565b6000610cc282610c2f565b9150819050919050565b60006020820190508181036000830152610ce68184610a7c565b905092915050565b60006020820190508181036000830152610d088184610b2a565b905092915050565b60006040820190508181036000830152610d2a8185610b2a565b9050610d396020830184610a6d565b9392505050565b60006040820190508181036000830152610d5a8185610b2a565b9050610d696020830184610ca8565b9392505050565b60006060820190508181036000830152610d8a8186610b2a565b9050610d996020830185610ca8565b610da66040830184610a6d565b949350505050565b60006020820190508181036000830152610dc781610b63565b9050919050565b60006020820190508181036000830152610de781610bc9565b9050919050565b6000602082019050610e036000830184610ca8565b92915050565b6000604082019050610e1e6000830185610ca8565b8181036020830152610e308184610b2a565b90509392505050565b6000604051905081810181811067ffffffffffffffff82111715610e6057610e5f6110b8565b5b8060405250919050565b600067ffffffffffffffff821115610e8557610e846110b8565b5b601f19601f8301169050602081019050919050565b6000819050602082019050919050565b600081519050919050565b600081519050919050565b6000602082019050919050565b600082825260208201905092915050565b600081905092915050565b600082825260208201905092915050565b600082825260208201905092915050565b6000610f1682610f93565b9150610f2183610f93565b9250827fffffffffffffffffffffffffffffffffffffffffffffffffffffffffffffffff03821115610f5657610f5561105a565b5b828201905092915050565b6000610f6c82610f73565b9050919050565b600073ffffffffffffffffffffffffffffffffffffffff82169050919050565b6000819050919050565b82818337600083830152505050565b60005b83811015610fca578082015181840152602081019050610faf565b83811115610fd9576000848401525b50505050565b60006002820490506001821680610ff757607f821691505b6020821081141561100b5761100a611089565b5b50919050565b600061101c82610f93565b91507fffffffffffffffffffffffffffffffffffffffffffffffffffffffffffffffff82141561104f5761104e61105a565b5b600182019050919050565b7f4e487b7100000000000000000000000000000000000000000000000000000000600052601160045260246000fd5b7f4e487b7100000000000000000000000000000000000000000000000000000000600052602260045260246000fd5b7f4e487b7100000000000000000000000000000000000000000000000000000000600052604160045260246000fd5b6000601f19601f8301169050919050565b61110181610f61565b811461110c57600080fd5b5056fe57652068617665206120746f74616c206f662025642077617665732066726f6d20616464726573732025732021a2646970667358221220f18f2fa3a9199a9fdd899c512386c9ac96b551bb1f27ff2975b882a3c698a8d364736f6c63430008000033",
  "linkReferences": {},
  "deployedLinkReferences": {}
}