{
    "_format": "hh-sol-artifact-1",
    "contractName": "WavePortal",
    "sourceName": "contracts/WavePortal.sol",
    "abi": [
        {
            "inputs": [],
            "stateMutability": "nonpayable",
            "type": "constructor"
        },
        {
            "inputs": [
                {
                    "internalType": "address",
                    "name": "",
                    "type": "address"
                }
            ],
            "name": "addressWaveCount",
            "outputs": [
                {
                    "internalType": "uint256",
                    "name": "",
                    "type": "uint256"
                }
            ],
            "stateMutability": "view",
            "type": "function"
        },
        {
            "inputs": [],
            "name": "getTotalWaves",
            "outputs": [
                {
                    "internalType": "uint256",
                    "name": "",
                    "type": "uint256"
                }
            ],
            "stateMutability": "view",
            "type": "function"
        },
        {
            "inputs": [],
            "name": "getTotalWavesOfSender",
            "outputs": [
                {
                    "internalType": "uint256",
                    "name": "",
                    "type": "uint256"
                }
            ],
            "stateMutability": "view",
            "type": "function"
        },
        {
            "inputs": [],
            "name": "wave",
            "outputs": [],
            "stateMutability": "nonpayable",
            "type": "function"
        }
    ],
    "bytecode": "0x608060405234801561001057600080fd5b5061003c604051806060016040528060248152602001610a3d6024913961004160201b6102821760201c565b6101c4565b6100dd816040516024016100559190610142565b6040516020818303038152906040527f41304fac000000000000000000000000000000000000000000000000000000007bffffffffffffffffffffffffffffffffffffffffffffffffffffffff19166020820180517bffffffffffffffffffffffffffffffffffffffffffffffffffffffff83818316178352505050506100e060201b60201c565b50565b60008151905060006a636f6e736f6c652e6c6f679050602083016000808483855afa5050505050565b600061011482610164565b61011e818561016f565b935061012e818560208601610180565b610137816101b3565b840191505092915050565b6000602082019050818103600083015261015c8184610109565b905092915050565b600081519050919050565b600082825260208201905092915050565b60005b8381101561019e578082015181840152602081019050610183565b838111156101ad576000848401525b50505050565b6000601f19601f8301169050919050565b61086a806101d36000396000f3fe608060405234801561001057600080fd5b506004361061004c5760003560e01c80636fe15b44146100515780639a2cdc081461005b578063dff0241c14610079578063ec3997e4146100a9575b600080fd5b6100596100c7565b005b610063610176565b6040516100709190610670565b60405180910390f35b610093600480360381019061008e9190610530565b6101c1565b6040516100a09190610670565b60405180910390f35b6100b16101d9565b6040516100be9190610670565b60405180910390f35b60016000808282546100d991906106a7565b92505081905550600160003373ffffffffffffffffffffffffffffffffffffffff1673ffffffffffffffffffffffffffffffffffffffff16815260200190815260200160002060008154809291906101309061076c565b91905055506101746040518060400160405280600d81526020017f25732068617320776176656421000000000000000000000000000000000000008152503361031b565b565b60006101b96040518060400160405280601781526020017f5765206861766520256420746f74616c207761766573210000000000000000008152506000546103b7565b600054905090565b60016020528060005260406000206000915090505481565b600061023d60405180606001604052806028815260200161080d60289139600160003373ffffffffffffffffffffffffffffffffffffffff1673ffffffffffffffffffffffffffffffffffffffff1681526020019081526020016000205433610453565b600160003373ffffffffffffffffffffffffffffffffffffffff1673ffffffffffffffffffffffffffffffffffffffff16815260200190815260200160002054905090565b6103188160405160240161029691906105b0565b6040516020818303038152906040527f41304fac000000000000000000000000000000000000000000000000000000007bffffffffffffffffffffffffffffffffffffffffffffffffffffffff19166020820180517bffffffffffffffffffffffffffffffffffffffffffffffffffffffff83818316178352505050506104f2565b50565b6103b382826040516024016103319291906105d2565b6040516020818303038152906040527f319af333000000000000000000000000000000000000000000000000000000007bffffffffffffffffffffffffffffffffffffffffffffffffffffffff19166020820180517bffffffffffffffffffffffffffffffffffffffffffffffffffffffff83818316178352505050506104f2565b5050565b61044f82826040516024016103cd929190610602565b6040516020818303038152906040527f9710a9d0000000000000000000000000000000000000000000000000000000007bffffffffffffffffffffffffffffffffffffffffffffffffffffffff19166020820180517bffffffffffffffffffffffffffffffffffffffffffffffffffffffff83818316178352505050506104f2565b5050565b6104ed83838360405160240161046b93929190610632565b6040516020818303038152906040527fe3849f79000000000000000000000000000000000000000000000000000000007bffffffffffffffffffffffffffffffffffffffffffffffffffffffff19166020820180517bffffffffffffffffffffffffffffffffffffffffffffffffffffffff83818316178352505050506104f2565b505050565b60008151905060006a636f6e736f6c652e6c6f679050602083016000808483855afa5050505050565b60008135905061052a816107f5565b92915050565b60006020828403121561054257600080fd5b60006105508482850161051b565b91505092915050565b610562816106fd565b82525050565b60006105738261068b565b61057d8185610696565b935061058d818560208601610739565b610596816107e4565b840191505092915050565b6105aa8161072f565b82525050565b600060208201905081810360008301526105ca8184610568565b905092915050565b600060408201905081810360008301526105ec8185610568565b90506105fb6020830184610559565b9392505050565b6000604082019050818103600083015261061c8185610568565b905061062b60208301846105a1565b9392505050565b6000606082019050818103600083015261064c8186610568565b905061065b60208301856105a1565b6106686040830184610559565b949350505050565b600060208201905061068560008301846105a1565b92915050565b600081519050919050565b600082825260208201905092915050565b60006106b28261072f565b91506106bd8361072f565b9250827fffffffffffffffffffffffffffffffffffffffffffffffffffffffffffffffff038211156106f2576106f16107b5565b5b828201905092915050565b60006107088261070f565b9050919050565b600073ffffffffffffffffffffffffffffffffffffffff82169050919050565b6000819050919050565b60005b8381101561075757808201518184015260208101905061073c565b83811115610766576000848401525b50505050565b60006107778261072f565b91507fffffffffffffffffffffffffffffffffffffffffffffffffffffffffffffffff8214156107aa576107a96107b5565b5b600182019050919050565b7f4e487b7100000000000000000000000000000000000000000000000000000000600052601160045260246000fd5b6000601f19601f8301169050919050565b6107fe816106fd565b811461080957600080fd5b5056fe5765206861766520256420746f74616c2077617665732066726f6d20616464726573732025732021a26469706673582212204e3d722bcd7a8326fcb8f67599de6cc6a9c0cc662a24b7b13f7e301e137bf0d264736f6c63430008000033596f20796f2c204920616d206120636f6e747261637420616d204920616d20736d617274",
    "linkReferences": {},
    "deployedLinkReferences": {}
}