{
  "_format": "hh-sol-artifact-1",
  "contractName": "WavePortal",
  "sourceName": "contracts/WavePortal.sol",
  "abi": [
    {
      "inputs": [],
      "stateMutability": "payable",
      "type": "constructor"
    },
    {
      "anonymous": false,
      "inputs": [
        {
          "indexed": true,
          "internalType": "address",
          "name": "from",
          "type": "address"
        },
        {
          "indexed": false,
          "internalType": "uint256",
          "name": "timestamp",
          "type": "uint256"
        },
        {
          "indexed": false,
          "internalType": "string",
          "name": "message",
          "type": "string"
        }
      ],
      "name": "NewWave",
      "type": "event"
    },
    {
      "inputs": [
        {
          "internalType": "address",
          "name": "",
          "type": "address"
        }
      ],
      "name": "addressWaveCount",
      "outputs": [
        {
          "internalType": "uint256",
          "name": "",
          "type": "uint256"
        }
      ],
      "stateMutability": "view",
      "type": "function"
    },
    {
      "inputs": [],
      "name": "getAllWaves",
      "outputs": [
        {
          "components": [
            {
              "internalType": "address",
              "name": "waver",
              "type": "address"
            },
            {
              "internalType": "string",
              "name": "message",
              "type": "string"
            },
            {
              "internalType": "uint256",
              "name": "timestamp",
              "type": "uint256"
            }
          ],
          "internalType": "struct WavePortal.Wave[]",
          "name": "",
          "type": "tuple[]"
        }
      ],
      "stateMutability": "view",
      "type": "function"
    },
    {
      "inputs": [],
      "name": "getTotalWaves",
      "outputs": [
        {
          "internalType": "uint256",
          "name": "",
          "type": "uint256"
        }
      ],
      "stateMutability": "view",
      "type": "function"
    },
    {
      "inputs": [],
      "name": "getTotalWavesOfSender",
      "outputs": [
        {
          "internalType": "uint256",
          "name": "",
          "type": "uint256"
        }
      ],
      "stateMutability": "view",
      "type": "function"
    },
    {
      "inputs": [
        {
          "internalType": "address",
          "name": "",
          "type": "address"
        }
      ],
      "name": "lastWavedAt",
      "outputs": [
        {
          "internalType": "uint256",
          "name": "",
          "type": "uint256"
        }
      ],
      "stateMutability": "view",
      "type": "function"
    },
    {
      "inputs": [
        {
          "internalType": "string",
          "name": "_message",
          "type": "string"
        }
      ],
      "name": "wave",
      "outputs": [],
      "stateMutability": "nonpayable",
      "type": "function"
    }
  ],
  "bytecode": "0x60806040526200004f6040518060400160405280601981526020017f57652068617665206265656e20636f6e737472756374656421000000000000008152506200007760201b6200077e1760201c565b606444426200005f9190620001c4565b6200006b919062000261565b60018190555062000308565b62000117816040516024016200008e919062000184565b6040516020818303038152906040527f41304fac000000000000000000000000000000000000000000000000000000007bffffffffffffffffffffffffffffffffffffffffffffffffffffffff19166020820180517bffffffffffffffffffffffffffffffffffffffffffffffffffffffff83818316178352505050506200011a60201b60201c565b50565b60008151905060006a636f6e736f6c652e6c6f679050602083016000808483855afa5050505050565b60006200015082620001a8565b6200015c8185620001b3565b93506200016e8185602086016200022b565b6200017981620002f7565b840191505092915050565b60006020820190508181036000830152620001a0818462000143565b905092915050565b600081519050919050565b600082825260208201905092915050565b6000620001d18262000221565b9150620001de8362000221565b9250827fffffffffffffffffffffffffffffffffffffffffffffffffffffffffffffffff0382111562000216576200021562000299565b5b828201905092915050565b6000819050919050565b60005b838110156200024b5780820151818401526020810190506200022e565b838111156200025b576000848401525b50505050565b60006200026e8262000221565b91506200027b8362000221565b9250826200028e576200028d620002c8565b5b828206905092915050565b7f4e487b7100000000000000000000000000000000000000000000000000000000600052601160045260246000fd5b7f4e487b7100000000000000000000000000000000000000000000000000000000600052601260045260246000fd5b6000601f19601f8301169050919050565b6112e380620003186000396000f3fe608060405234801561001057600080fd5b50600436106100625760003560e01c8063449d46c0146100675780639a2cdc0814610083578063a42a4663146100a1578063bd43a908146100d1578063dff0241c146100ef578063ec3997e41461011f575b600080fd5b610081600480360381019061007c9190610ac4565b61013d565b005b61008b61054b565b6040516100989190610eff565b60405180910390f35b6100bb60048036038101906100b69190610a9b565b610554565b6040516100c89190610eff565b60405180910390f35b6100d961056c565b6040516100e69190610ded565b60405180910390f35b61010960048036038101906101049190610a9b565b6106bd565b6040516101169190610eff565b60405180910390f35b6101276106d5565b6040516101349190610eff565b60405180910390f35b42601e600360003373ffffffffffffffffffffffffffffffffffffffff1673ffffffffffffffffffffffffffffffffffffffff1681526020019081526020016000205461018a919061101c565b106101ca576040517f08c379a00000000000000000000000000000000000000000000000000000000081526004016101c190610edf565b60405180910390fd5b42600360003373ffffffffffffffffffffffffffffffffffffffff1673ffffffffffffffffffffffffffffffffffffffff168152602001908152602001600020819055506001600080828254610220919061101c565b92505081905550600260003373ffffffffffffffffffffffffffffffffffffffff1673ffffffffffffffffffffffffffffffffffffffff168152602001908152602001600020600081548092919061027790611122565b91905055506102bb6040518060400160405280600d81526020017f257320686173207761766564210000000000000000000000000000000000000081525033610817565b600460405180606001604052803373ffffffffffffffffffffffffffffffffffffffff16815260200183815260200142815250908060018154018082558091505060019003906000526020600020906003020160009091909190915060008201518160000160006101000a81548173ffffffffffffffffffffffffffffffffffffffff021916908373ffffffffffffffffffffffffffffffffffffffff160217905550602082015181600101908051906020019061037a92919061097b565b5060408201518160020155505060646001544244610398919061101c565b6103a2919061101c565b6103ac919061116b565b6001819055506032600154116104f8576103fb6040518060400160405280600781526020017f257320776f6e210000000000000000000000000000000000000000000000000081525033610817565b6000655af3107a4000905047811115610449576040517f08c379a000000000000000000000000000000000000000000000000000000000815260040161044090610e9f565b60405180910390fd5b60003373ffffffffffffffffffffffffffffffffffffffff168260405161046f90610dd8565b60006040518083038185875af1925050503d80600081146104ac576040519150601f19603f3d011682016040523d82523d6000602084013e6104b1565b606091505b50509050806104f5576040517f08c379a00000000000000000000000000000000000000000000000000000000081526004016104ec90610ebf565b60405180910390fd5b50505b3373ffffffffffffffffffffffffffffffffffffffff167f5f7e16dc676677766a70e9c5628aa6c54ddb8b6e5188e2ae1e1f17f1ffbea7164283604051610540929190610f1a565b60405180910390a250565b60008054905090565b60036020528060005260406000206000915090505481565b60606004805480602002602001604051908101604052809291908181526020016000905b828210156106b457838290600052602060002090600302016040518060600160405290816000820160009054906101000a900473ffffffffffffffffffffffffffffffffffffffff1673ffffffffffffffffffffffffffffffffffffffff1673ffffffffffffffffffffffffffffffffffffffff168152602001600182018054610619906110f0565b80601f0160208091040260200160405190810160405280929190818152602001828054610645906110f0565b80156106925780601f1061066757610100808354040283529160200191610692565b820191906000526020600020905b81548152906001019060200180831161067557829003601f168201915b5050505050815260200160028201548152505081526020019060010190610590565b50505050905090565b60026020528060005260406000206000915090505481565b60006107396040518060600160405280602d8152602001611281602d9139600260003373ffffffffffffffffffffffffffffffffffffffff1673ffffffffffffffffffffffffffffffffffffffff16815260200190815260200160002054336108b3565b600260003373ffffffffffffffffffffffffffffffffffffffff1673ffffffffffffffffffffffffffffffffffffffff16815260200190815260200160002054905090565b610814816040516024016107929190610e0f565b6040516020818303038152906040527f41304fac000000000000000000000000000000000000000000000000000000007bffffffffffffffffffffffffffffffffffffffffffffffffffffffff19166020820180517bffffffffffffffffffffffffffffffffffffffffffffffffffffffff8381831617835250505050610952565b50565b6108af828260405160240161082d929190610e31565b6040516020818303038152906040527f319af333000000000000000000000000000000000000000000000000000000007bffffffffffffffffffffffffffffffffffffffffffffffffffffffff19166020820180517bffffffffffffffffffffffffffffffffffffffffffffffffffffffff8381831617835250505050610952565b5050565b61094d8383836040516024016108cb93929190610e61565b6040516020818303038152906040527fe3849f79000000000000000000000000000000000000000000000000000000007bffffffffffffffffffffffffffffffffffffffffffffffffffffffff19166020820180517bffffffffffffffffffffffffffffffffffffffffffffffffffffffff8381831617835250505050610952565b505050565b60008151905060006a636f6e736f6c652e6c6f679050602083016000808483855afa5050505050565b828054610987906110f0565b90600052602060002090601f0160209004810192826109a957600085556109f0565b82601f106109c257805160ff19168380011785556109f0565b828001600101855582156109f0579182015b828111156109ef5782518255916020019190600101906109d4565b5b5090506109fd9190610a01565b5090565b5b80821115610a1a576000816000905550600101610a02565b5090565b6000610a31610a2c84610f7b565b610f4a565b905082815260208101848484011115610a4957600080fd5b610a548482856110ae565b509392505050565b600081359050610a6b81611269565b92915050565b600082601f830112610a8257600080fd5b8135610a92848260208601610a1e565b91505092915050565b600060208284031215610aad57600080fd5b6000610abb84828501610a5c565b91505092915050565b600060208284031215610ad657600080fd5b600082013567ffffffffffffffff811115610af057600080fd5b610afc84828501610a71565b91505092915050565b6000610b118383610d6a565b905092915050565b610b2281611072565b82525050565b610b3181611072565b82525050565b6000610b4282610fbb565b610b4c8185610fde565b935083602082028501610b5e85610fab565b8060005b85811015610b9a5784840389528151610b7b8582610b05565b9450610b8683610fd1565b925060208a01995050600181019050610b62565b50829750879550505050505092915050565b6000610bb782610fc6565b610bc18185610ffa565b9350610bd18185602086016110bd565b610bda81611258565b840191505092915050565b6000610bf082610fc6565b610bfa818561100b565b9350610c0a8185602086016110bd565b610c1381611258565b840191505092915050565b6000610c2b60348361100b565b91507f547279696e6720746f207769746864726177206d6f7265206d6f6e657920746860008301527f616e2074686520636f6e7472616374206861732e0000000000000000000000006020830152604082019050919050565b6000610c9160278361100b565b91507f4661696c656420746f207769746864726177206d6f6e65792066726f6d20636f60008301527f6e74726163742e000000000000000000000000000000000000000000000000006020830152604082019050919050565b6000610cf760298361100b565b91507f4d7573742077616974203330207365636f6e6473206265666f7265207761766960008301527f6e6720616761696e2e00000000000000000000000000000000000000000000006020830152604082019050919050565b6000610d5d600083610fef565b9150600082019050919050565b6000606083016000830151610d826000860182610b19565b5060208301518482036020860152610d9a8282610bac565b9150506040830151610daf6040860182610dba565b508091505092915050565b610dc3816110a4565b82525050565b610dd2816110a4565b82525050565b6000610de382610d50565b9150819050919050565b60006020820190508181036000830152610e078184610b37565b905092915050565b60006020820190508181036000830152610e298184610be5565b905092915050565b60006040820190508181036000830152610e4b8185610be5565b9050610e5a6020830184610b28565b9392505050565b60006060820190508181036000830152610e7b8186610be5565b9050610e8a6020830185610dc9565b610e976040830184610b28565b949350505050565b60006020820190508181036000830152610eb881610c1e565b9050919050565b60006020820190508181036000830152610ed881610c84565b9050919050565b60006020820190508181036000830152610ef881610cea565b9050919050565b6000602082019050610f146000830184610dc9565b92915050565b6000604082019050610f2f6000830185610dc9565b8181036020830152610f418184610be5565b90509392505050565b6000604051905081810181811067ffffffffffffffff82111715610f7157610f70611229565b5b8060405250919050565b600067ffffffffffffffff821115610f9657610f95611229565b5b601f19601f8301169050602081019050919050565b6000819050602082019050919050565b600081519050919050565b600081519050919050565b6000602082019050919050565b600082825260208201905092915050565b600081905092915050565b600082825260208201905092915050565b600082825260208201905092915050565b6000611027826110a4565b9150611032836110a4565b9250827fffffffffffffffffffffffffffffffffffffffffffffffffffffffffffffffff038211156110675761106661119c565b5b828201905092915050565b600061107d82611084565b9050919050565b600073ffffffffffffffffffffffffffffffffffffffff82169050919050565b6000819050919050565b82818337600083830152505050565b60005b838110156110db5780820151818401526020810190506110c0565b838111156110ea576000848401525b50505050565b6000600282049050600182168061110857607f821691505b6020821081141561111c5761111b6111fa565b5b50919050565b600061112d826110a4565b91507fffffffffffffffffffffffffffffffffffffffffffffffffffffffffffffffff8214156111605761115f61119c565b5b600182019050919050565b6000611176826110a4565b9150611181836110a4565b925082611191576111906111cb565b5b828206905092915050565b7f4e487b7100000000000000000000000000000000000000000000000000000000600052601160045260246000fd5b7f4e487b7100000000000000000000000000000000000000000000000000000000600052601260045260246000fd5b7f4e487b7100000000000000000000000000000000000000000000000000000000600052602260045260246000fd5b7f4e487b7100000000000000000000000000000000000000000000000000000000600052604160045260246000fd5b6000601f19601f8301169050919050565b61127281611072565b811461127d57600080fd5b5056fe57652068617665206120746f74616c206f662025642077617665732066726f6d20616464726573732025732021a2646970667358221220c0223d8a5d0eec7f040ecfd9ef2b445617fc8f5b5250555dae9516e5c0ffb10a64736f6c63430008000033",
  "linkReferences": {},
  "deployedLinkReferences": {}
}